:020000040800F2
:1000000000500020091800085D0600085F0600087F
:10001000610600086306000865060008000000008D
:10002000000000000000000000000000670600085B
:1000300069060008000000006B0600086D06000855
:1000400051180008511800085118000851180008EC
:1000500051180008511800085118000851180008DC
:1000600051180008511800085118000851180008CC
:1000700051180008511800085118000851180008BC
:1000800051180008511800085118000851180008AC
:10009000511800085118000851180008511800089C
:1000A000511800085118000851180008511800088C
:1000B000511800085118000851180008511800087C
:1000C000511800085118000851180008511800086C
:1000D000511800085118000851180008511800085C
:1000E00051180008511800085118000800000000BD
:1000F0000000000000000000000000000000000000
:0C01000000000000000000005FF808F1A3
:10010C0010B5054C237833B9044B13B10448AFF345
:10011C0000800123237010BD0C00002000000000A3
:10012C009C18000808B5034B1BB103490348AFF3F7
:10013C00008008BD00000000100000209C18000882
:10014C00FEE7000000B591B00223069301230A9349
:10015C0010230B9300230D9306A800F01FFEF0B99B
:10016C000F2301930021029103910491059101A8A1
:10017C0001F03AF8B8B901F0F3F80D4BA3FB0030DD
:10018C00800901F04DFA042001F060FA00221146BA
:10019C004FF0FF3001F010FA11B05DF804FB902124
:1001AC000448FFF7CDFF9E210248FFF7C9FF00BFAF
:1001BC00D34D6210C818000808B500F0A1FDFFF778
:1001CC00C1FF00F01FF800F085F900F029F900F0EC
:1001DC00D1F800F061F901F075FA00F099F94FF4DB
:1001EC000051064801F0D2F90221054801F0CEF980
:1001FC004FF47A7000F0A8FDF1E700BF0010014049
:10020C00000C01402DE9F04389B02F4B9A6942F064
:10021C0010029A619A6902F010020192019A9A698D
:10022C0042F004029A619A6902F004020292029A64
:10023C009A6942F008029A619B6903F008030393E0
:10024C00039BDFF88C9000224FF40051484601F0DC
:10025C0097F9DFF8808000224FF4C451404601F03A
:10026C008FF91A4D00220321284601F089F94FF429
:10027C000053049301270597002406940226079641
:10028C0004A9484601F092F84FF4C453049305971F
:10029C000694079604A9404601F088F803230493BA
:1002AC0005970694079604A9284601F07FF84FF4A9
:1002BC00805304930594069404A9284601F076F81B
:1002CC0009B0BDE8F08300BF00100240000C0140F3
:1002DC00001001400008014082B003680E4A9342AE
:1002EC0004D00E4A93420CD002B070470C4B9A6962
:1002FC0042F400629A619B6903F400630093009BD3
:10030C00F2E7074BDA6942F00202DA61DB6903F0CB
:10031C0002030193019BE7E7002C0140000400401D
:10032C000010024000B585B003680F4A934205D017
:10033C000E4A93420DD005B05DF804FB4FF4807368
:10034C0000930223019303936946094801F02EF8A8
:10035C00F1E7402300930223019303936946044879
:10036C0001F024F8E7E700BF002C01400004004036
:10037C000008014000B591B02648274B03600023CC
:10038C0043608360C36003614361836100F07CFA66
:10039C0000282AD100230E930F930EA91D4800F0BC
:1003AC0059FB38BB602307930022089209920A92EA
:1003BC000B920C920D9207A9164800F0B1FAF0B905
:1003CC000023009301930293039304934FF4005280
:1003DC000592069369460F4800F010FBA0B90D4832
:1003EC00FFF7A0FF11B05DF804FB42210B48FFF7AB
:1003FC00A7FECFE749210948FFF7A2FED2E7552116
:10040C000648FFF79DFEDBE761210448FFF798FEE5
:10041C00E5E700BF68000020002C0140D41800085C
:10042C0000B58BB019481A4B0360002343608360FE
:10043C00C3600361836100F027FAC0B900230893FD
:10044C00099308A9114800F005FBA8B96023019392
:10045C00002202920392059201A90C4800F060FA66
:10046C0078B90A48FFF75EFF0BB05DF804FB752105
:10047C000848FFF765FEE1E77C210648FFF760FEC0
:10048C00E4E785210348FFF75BFEEAE7280000203C
:10049C0000040040D418000808B50B480B4B03604F
:1004AC004FF4E133436000238360C36003610C228B
:1004BC0042618361C36100F0CDFB00B908BD4421EA
:1004CC000348FFF73DFEF9E7E80000200038014043
:1004DC00E018000808B50B480B4B03604FF4E133F0
:1004EC00436000238360C36003610C22426183611B
:1004FC00C36100F0AFFB00B908BD57210348FFF7FB
:10050C001FFEF9E72801002000440040E018000815
:10051C0008B50B480B4B03604FF4E13343600023E9
:10052C008360C36003610C2242618361C36100F08C
:10053C0091FB00B908BD6A210348FFF701FEF9E7FA
:10054C00A800002000480040E018000810B588B052
:10055C000368384A934207D0374A93422AD0374A25
:10056C00934246D008B010BD354B9A6942F4804294
:10057C009A619B6903F480430193019B402304938C
:10058C0002230593032307932E4C04A9204600F065
:10059C000DFF8023049300230593069304A92046A2
:1005AC0000F004FF284A536843F0E06343F004036F
:1005BC005360D7E7224BDA6942F40032DA61DB6927
:1005CC0003F400330293029B042304930223059348
:1005DC00032307931D4C04A9204600F0E7FE0823D3
:1005EC00049300230593069304A9204600F0DEFE35
:1005FC00B8E7134BDA6942F48022DA61DB6903F461
:10060C0080230393039B4FF480630493022305938D
:10061C00032307930B4C04A9204600F0C7FE4FF4AC
:10062C000063049300230593069304A9204600F06D
:10063C00BDFE97E7003801400044004000480040F0
:10064C0000100240000C0140000001400008014075
:10065C007047FEE7FEE7FEE7FEE77047704770471E
:10066C0008B500F05FFB01F002F808BD00B583B0DF
:10067C00244B9A6942F001029A619A6902F00102D4
:10068C000092009ADA6942F08052DA61DB6903F079
:10069C0080530193019B032000F07CFF0022114644
:1006AC006FF00B0000F088FF002211466FF00A007B
:1006BC0000F082FF002211466FF0090000F07CFF71
:1006CC00002211466FF0040000F076FF0022114664
:1006DC006FF0030000F070FF002211466FF0010074
:1006EC0000F06AFF002211464FF0FF3000F064FF6B
:1006FC00054A536823F0E06343F00073536003B082
:10070C005DF804FB001002400000014070B4036A65
:10071C0023F001030362036A4268846924F07304C2
:10072C000D6845EA040623F002048B6823430D4D43
:10073C00A84209D00B4DA8420DD0426086614A6890
:10074C004263036270BC704723F00803CC682343F8
:10075C0023F00403EEE722F440724C6914438A69D7
:10076C002243EAE7002C014030B4036A23F480737F
:10077C000362036A4268C46924F073040D682C4355
:10078C0023F400738D6843EA05230F4DA84209D06A
:10079C000D4DA8420ED04260C4614A68C263036228
:1007AC0030BC704723F40063CD6843EA052323F47F
:1007BC008063EDE722F440524D6942EA05128D69DF
:1007CC0042EA0512E7E700BF002C014030B4036A8F
:1007DC0023F480530362036A4468C26922F4E6423C
:1007EC000D6842EA052223F400538D6843EA053371
:1007FC00074DA84206D04460C2614A680264036295
:10080C0030BC704724F480444D6944EA8514F2E707
:10081C00002C014003681B4A90420AD0B0F1804F73
:10082C0007D0A2F59432904203D002F58062904238
:10083C0003D123F070034A681343124A90420AD042
:10084C00B0F1804F07D0A2F59432904203D002F55C
:10085C008062904203D123F44073CA68134323F09F
:10086C0080034A69134303608B68C3620B6883621D
:10087C00044B984202D00123436170470B69036318
:10088C00F9E700BF002C0140A8B110B5044690F860
:10089C003D305BB1022384F83D30211D2068FFF709
:1008AC00B9FF012384F83D30002010BD80F83C30A6
:1008BC00FFF712FDEEE701207047000030B4036A29
:1008CC0023F010030362036A4468826922F4E6424F
:1008DC000D6842EA052223F020038D6843EA0513D4
:1008EC000E4DA84209D00D4DA8420ED04460826135
:1008FC004A688263036230BC704723F08003CD6882
:10090C0043EA051323F04003EDE724F440644D69FA
:10091C0044EA85048D6944EA8504E7E7002C01402C
:10092C0038B590F83C30012B66D00D4604460123B7
:10093C0080F83C30022380F83D300C2A1AD8DFE8CE
:10094C0002F0071919192019191934191919470026
:10095C000068FFF7DBFE2268936943F0080393619C
:10096C002268936923F004039361226893692969CF
:10097C000B439361012384F83D30002084F83C0044
:10098C0038BD0068FFF79AFF2268936943F400634F
:10099C0093612268936923F480639361226893695D
:1009AC00296943EA01239361E4E70068FFF7DCFE61
:1009BC002268D36943F00803D3612268D36923F01A
:1009CC000403D3612268D36929690B43D361D1E74E
:1009DC000068FFF7FBFE2268D36943F40063D36120
:1009EC002268D36923F48063D3612268D3692969AF
:1009FC0043EA0123D361BDE70220C1E790F83C3004
:100A0C00012B25D0012380F83C30CB6823F44073B4
:100A1C008A68134323F480634A68134323F4006306
:100A2C000A68134323F480530A69134323F40053D5
:100A3C004A69134323F480438A69134323F4004324
:100A4C00134302685364002380F83C301846704707
:100A5C000220704790F83C30012B22D030B4012298
:100A6C0080F83C20022380F83D300468636823F052
:100A7C0070036360046863680D682B4363600468EB
:100A8C00A36823F08003A3600468A36849680B4340
:100A9C00A36080F83D20002380F83C30184630BC21
:100AAC0070470220704700002DE9F84305460268A4
:100ABC00136923F44053C1680B43136183680269C3
:100ACC001343426913430168CA6822F4B05222F0FE
:100ADC000C021343CB600268536923F440738169A1
:100AEC000B4353610268594B9A4257D000F03EFCBD
:100AFC0000EB800000EB80006C68A400B0FBF4F409
:100B0C00534FA7FB04346409260100F02FFC00EBC3
:100B1C00800000EB80006C68A400B0FBF4F900F0DE
:100B2C0025FC00EB800000EB80006C68A400B0FB9F
:100B3C00F4F4A7FB043464094FF0640808FB149424
:100B4C0024013234A7FB0434640904F0F004344467
:100B5C0000F00CFC00EB800000EB80006E68B6002F
:100B6C00B0FBF6F600F002FC00EB800000EB80001E
:100B7C006B689B00B0FBF3F0A7FB0030400908FB4F
:100B8C0010684FEA081808F13208A7FB0837C7F3BA
:100B9C0043172B6827449F60BDE8F88300F0F6FBF1
:100BAC0000EB800000EB80006C68A400B0FBF4F458
:100BBC00274FA7FB04346409260100F0E7FB00EB88
:100BCC00800000EB80006C68A400B0FBF4F900F02E
:100BDC00DDFB00EB800000EB80006C68A400B0FB38
:100BEC00F4F4A7FB043464094FF0640808FB149474
:100BFC0024013234A7FB0434640904F0F0043444B7
:100C0C0000F0C4FB00EB800000EB80006E68B600C7
:100C1C00B0FBF6F600F0BAFB00EB800000EB8000B6
:100C2C006B689B00B0FBF3F0A7FB0030400908FB9E
:100C3C0010684FEA081808F13208A7FB0837C7F309
:100C4C0043172B6827449F60A6E700BF003801407C
:100C5C001F85EB5158B310B5044690F839300BB3DF
:100C6C00242384F839302268D36823F40053D360EA
:100C7C002046FFF719FF2268136923F49043136190
:100C8C002268536923F02A0353612268D36843F422
:100C9C000053D3600020E063202384F8393084F8BB
:100CAC003A3010BD80F83830FFF750FCD8E70120FF
:100CBC007047000010B504460E4B18784FF47A7349
:100CCC00B3FBF0F30C4A1068B0FBF3F000F0A8FC97
:100CDC0068B90F2C01D901200AE0002221464FF0FF
:100CEC00FF3000F069FC054B1C60002000E0012087
:100CFC0010BD00BF000000200800002004000020F0
:100D0C0008B5074A136843F010031360032000F082
:100D1C0041FC0020FFF7CEFFFFF7A8FC002008BD28
:100D2C0000200240034A1168034B1B780B441360EC
:100D3C00704700BF6801002000000020014B1868BC
:100D4C00704700BF6801002038B50446FFF7F6FF76
:100D5C000546B4F1FF3F02D0044B1B781C44FFF74F
:100D6C00EDFF401BA042FAD338BD00BF00000020AD
:100D7C0082B0084B1B68084AA2FB03235B0A00FBEA
:100D8C0003F0019000BF019B5A1E0192002BF9D178
:100D9C0002B0704708000020D34D621070B582B0CD
:100DAC000446036813F0010F2CD0AB4B5B6803F0C7
:100DBC000C03042B1DD0A84B5B6803F00C03082B11
:100DCC0012D06368B3F5803F41D0002B55D103F1AD
:100DDC00804303F504331A6822F480321A601A68CF
:100DEC0022F480221A6037E09B4B5B6813F4803F3F
:100DFC00E7D0994B1B6813F4003F03D06368002BBA
:100E0C0000F0AE81236813F0020F76D0924B5B6832
:100E1C0013F00C0F5FD0904B5B6803F00C03082BA6
:100E2C0054D02369002B00F08A808C4B01221A606D
:100E3C00FFF784FF0546884B1B6813F0020F75D132
:100E4C00FFF77CFF401B0228F5D903208BE1824A77
:100E5C00136843F480331360636843B3FFF76EFF8A
:100E6C0005467D4B1B6813F4003FCBD1FFF766FFA3
:100E7C00401B6428F5D9032075E1B3F5A02F09D0E8
:100E8C00754B1A6822F480321A601A6822F4802298
:100E9C001A60E1E703F18043A3F53C331A6842F48E
:100EAC0080221A601A6842F480321A60D4E7FFF785
:100EBC0045FF0546684B1B6813F4003FA2D0FFF7B3
:100ECC003DFF401B6428F5D903204CE1624B5B6865
:100EDC0013F4803FA5D1604B1B6813F0020F04D0B4
:100EEC002369012B01D001203DE15B4A136823F0FB
:100EFC00F803616943EAC1031360236813F0080F18
:100F0C0032D0A369002B5BD0554B01221A60FFF73E
:100F1C0015FF0546504B5B6A13F0020F21D1FFF70A
:100F2C000DFF401B0228F5D903201CE14A4A136827
:100F3C0023F0F803616943EAC1031360DDE7474B13
:100F4C0000221A60FFF7FAFE0546434B1B6813F0AC
:100F5C00020FD2D0FFF7F2FE401B0228F5D9032076
:100F6C0001E10120FFF704FF236813F0040F00F0E8
:100F7C009780394BDB6913F0805F33D1364BDA69DC
:100F8C0042F08052DA61DB6903F080530193019BDC
:100F9C000125344B1B6813F4807F25D0E368012BAB
:100FAC0036D0002B4CD103F1804303F504331A6A7D
:100FBC0022F001021A621A6A22F004021A622CE070
:100FCC00274B00221A60FFF7B9FE0546224B5B6ADD
:100FDC0013F0020FC8D0FFF7B1FE401B0228F5D961
:100FEC000320C0E00025D4E71E4A136843F4807345
:100FFC001360FFF7A3FE06461A4B1B6813F4807FA1
:10100C00CCD1FFF79BFE801B6428F5D90320AAE006
:10101C00114A136A43F001031362E36873B3FFF7D9
:10102C008DFE06460C4B1B6A13F0020F37D1FFF7EF
:10103C0085FE801B41F288339842F3D9032092E05D
:10104C00052B11D0044B1A6A22F001021A621A6A9B
:10105C0022F004021A62E0E7001002400000424253
:10106C008004424200700040414B1A6A42F0040274
:10107C001A621A6A42F001021A62CEE7FFF75EFEAC
:10108C0006463B4B1B6A13F0020F08D0FFF756FEC7
:10109C00801B41F288339842F3D9032063E0E5B911
:1010AC00E369002B5ED0324A526802F00C02082A27
:1010BC005BD0022B17D02F4B00221A60FFF73EFE9D
:1010CC0004462B4B1B6813F0007F47D0FFF736FE0E
:1010DC00001B0228F5D9032045E0254AD36923F0EB
:1010EC008053D361DCE7234B00221A60FFF726FE06
:1010FC0005461F4B1B6813F0007F06D0FFF71EFE42
:10110C00401B0228F5D903202DE0236AB3F5803F5C
:10111C001AD017494B6823F47413226A606A02438D
:10112C0013434B60134B01221A60FFF707FE044672
:10113C000F4B1B6813F0007F0ED1FFF7FFFD001B58
:10114C000228F5D903200EE0094A536823F4003332
:10115C00A1680B435360DCE7002004E0002002E0B0
:10116C00012000E0002002B070BD0120FBE700BFB1
:10117C00001002406000424210B487B0164C94E854
:10118C000F000DF1180C0CE90F00238AADF8043098
:10119C00124B5B6803F00C02082A1AD1C3F383428A
:1011AC00624412F8102C13F4803F05D10C4800FB5C
:1011BC0002F007B010BC7047084B5B68C3F34043A8
:1011CC00634413F8143C074800FB02F0B0FBF3F047
:1011DC00EFE70448EDE700BFB41800080010024028
:1011EC0000093D0000127A00594B1B6803F00703FD
:1011FC008B420CD2564A136823F007030B4313603F
:10120C00136803F007038B4201D00120704770B5BF
:10121C00036813F0020F06D04E4A536823F0F00314
:10122C008468234353600C460546036813F0010F92
:10123C0052D04368012B23D0022B28D0454A126888
:10124C0012F0020F00F0828042494A6822F0030239
:10125C0013434B60FFF772FD06466B68012B1DD0E4
:10126C00022B2AD03B4B5B6813F00C0F34D0FFF7EA
:10127C0065FD801B41F288339842F3D9032064E06A
:10128C00344A126812F4003FDED101205DE0314A8D
:10129C00126812F0007FD7D1012056E02D4B5B680D
:1012AC0003F00C03042B17D0FFF748FD801B41F211
:1012BC0088339842F2D9032047E0264B5B6803F051
:1012CC000C03082B08D0FFF739FD801B41F2883343
:1012DC009842F2D9032038E01D4B1B6803F007033A
:1012EC00A3420CD91A4A136823F007032343136053
:1012FC00136803F00703A34201D0012025E02B68FB
:10130C0013F0040F06D0134A536823F4E063E96822
:10131C000B4353602B6813F0080F07D00D4A53682A
:10132C0023F46053296943EAC1035360FFF724FF98
:10133C00084B5B68C3F30313074AD35CD840074BD5
:10134C0018600020FFF7B6FC002070BD0120FCE700
:10135C000020024000100240EC1800080800002099
:10136C00014B1868704700BF0800002008B5FFF754
:10137C00F7FF044B5B68C3F30223034AD35CD840EA
:10138C0008BD00BF00100240FC18000808B5FFF7AC
:10139C00E7FF044B5B68C3F3C223034AD35CD8401A
:1013AC0008BD00BF00100240FC180008F0B482B069
:1013BC0000263546A1E0002C59D0012C00D1CE6876
:1013CC00FF2B68D88446FF2B68D8AC00DCF80020D3
:1013DC000F27A74022EA070206FA04F42243CCF8AE
:1013EC0000204A6812F0805F00F086805E4A9469A3
:1013FC0044F001049461926902F001020192019A95
:10140C00AC08A71C594A52F8272005F00307BF0067
:10141C004FF00F0C0CFA07FC22EA0C0C544A9042C9
:10142C0042D002F5806290427FD002F580629042F9
:10143C007DD002F58062904234D0042235E04D4FCD
:10144C00BC4214D00BD94C4FBC4210D007F580379E
:10145C00BC420CD0A7F58017BC42B1D107E0A7F570
:10146C008017BC4203D007F58037BC42A8D18C68EA
:10147C007CB1012C08D042610826A1E7CE68083661
:10148C009EE7CE680C369BE70261082698E700269B
:10149C0096E7042694E700F1040C94E7A5F1080400
:1014AC00A40093E7032200E00022BA4042EA0C02B7
:1014BC0002342E4F47F824204A6812F4803F38D06B
:1014CC002E4C22681A4322604A6812F4003F36D030
:1014DC002A4C62681A4362604A6812F4801F34D046
:1014EC00264CA2681A43A2604A6812F4001F32D03C
:1014FC00224CE2681343E36001350F2D31D80122F1
:10150C00AA400B6813409A42F6D14C68122CB8D002
:10151C0095D8022CB2D07FF64EAF032CB7D0112C3D
:10152C007FF44EAFCE6804364AE70122BDE70222B3
:10153C00BBE7124C226822EA03022260C4E70F4C7C
:10154C00626822EA03026260C6E70C4CA26822EAD7
:10155C000302A260C8E7094CE26822EA0303E360D5
:10156C00CAE702B0F0BC7047001002400000014016
:10157C00000801400000211000003110000401405F
:10158C0012B909040161704701617047C368594081
:10159C00C1607047074AD36823F4E0631B041B0C3B
:1015AC00000200F4E060184340F0BF6040F40030EB
:1015BC00D060704700ED00E030B4174BDB68C3F32C
:1015CC000223C3F10704042C28BF04241D1D062D7F
:1015DC0018D9033B4FF0FF3505FA04F421EA040156
:1015EC00994005FA03F322EA0303194300280BDBA5
:1015FC000901C9B200F1604000F5614080F80013A8
:10160C0030BC70470023E5E700F00F000901C9B2B8
:10161C00024B1954F4E700BF00ED00E014ED00E0BC
:10162C000138B0F1807F0AD2064B5860064AF0218F
:10163C0082F823100020986007221A60704701205E
:10164C00704700BF10E000E000ED00E0042805D07A
:10165C00054A136823F0040313607047024A1368A9
:10166C0043F004031360704710E000E0704708B5C6
:10167C00FFF7FCFF08BD00000F4B1A6842F0010297
:10168C001A6059680D4A0A405A601A6822F084722E
:10169C0022F480321A601A6822F480221A605A6886
:1016AC0022F4FE025A604FF41F029A60044B4FF072
:1016BC0000629A60704700BF001002400000FFF803
:1016CC0000ED00E008B50E480E4B03604FF482733A
:1016DC00436000238360C360036143614FF4007275
:1016EC008261C3610362436283620A23C36200F0B6
:1016FC0043F800B908BD45210348FEF721FDF9E781
:10170C006C01002000300140041900080268174BDE
:10171C009A4200D0704710B586B003F560439A69C1
:10172C0042F480529A619B6903F480530193019BAC
:10173C002823029302230393032305930C4C02A941
:10174C002046FFF733FE10230293002303930493E8
:10175C0002A92046FFF72AFE064A536843F0E063CD
:10176C0043F00103536006B010BD00BF00300140D0
:10177C00000C01400000014000283CD010B504468C
:10178C000023836290F85130002B31D0022384F86F
:10179C0051302268136823F0400313606368A26819
:1017AC001343E26813432269134362691343A2692A
:1017BC0002F400721343E2691343226A1343A16AD1
:1017CC0022680B431360638B03F00403616A226885
:1017DC000B4353602368E26A1A612268D36923F4CD
:1017EC000063D36100206065012384F8513010BD83
:1017FC00FFF78CFFCAE7012070470000002103E0CF
:10180C000B4B5B58435004310A480B4B42189A421D
:10181C00F6D30A4A02E0002342F8043B084B9A42F2
:10182C00F9D3FFF729FF00F00FF8FEF7C5FC70475E
:10183C0018190008000000200C0000200C000020EB
:10184C00C4010020FEE7000070B500250C4E0D4CC5
:10185C00A41BA410A54209D100F01AF800250A4EC9
:10186C000A4CA41BA410A54205D170BD56F8253016
:10187C0098470135EEE756F8253098470135F2E7E1
:10188C001019000810190008101900081419000884
:10189C00F8B500BFF8BC08BC9E467047F8B500BF51
:0818AC00F8BC08BC9E46704721
:1018B40002030405060708090A0B0C0D0E0F10108D
:1018C400010200005372632F6D61696E2E63000084
:1018D4005372632F74696D2E630000005372632F7B
:1018E40075736172742E6300000000000000000034
:1018F40001020304060708090000000001020304B2
:0C1904005372632F7370692E63000000A3
:041910003101000899
:041914000D010008B9
:0C191800010000001000000000A24A04C2
:0400000508001809CE
:00000001FF
