:020000040800F2
:1000000000500020950D0008F5020008F7020008D6
:10001000F9020008FB020008FD02000800000000D1
:10002000000000000000000000000000FF020008C7
:100030000103000800000000030300080503000896
:10004000DD0D0008DD0D0008DD0D0008DD0D0008E8
:10005000DD0D0008DD0D0008DD0D0008DD0D0008D8
:10006000DD0D0008DD0D0008DD0D0008DD0D0008C8
:10007000DD0D0008DD0D0008DD0D0008DD0D0008B8
:10008000DD0D0008DD0D0008DD0D0008DD0D0008A8
:10009000DD0D0008DD0D0008DD0D0008DD0D000898
:1000A000DD0D0008DD0D0008DD0D0008DD0D000888
:1000B000DD0D0008DD0D0008DD0D0008DD0D000878
:1000C000DD0D0008DD0D0008DD0D0008DD0D000868
:1000D000DD0D0008DD0D0008DD0D0008DD0D000858
:1000E000DD0D0008DD0D0008DD0D0008000000003A
:1000F0000000000000000000000000000000000000
:0C01000000000000000000005FF808F1A3
:10010C00044B05481B1A062B02D9044B03B11847A4
:10011C00704700BF0F0000200C0000200000000002
:10012C0005490648091A891001EBD171491002D012
:10013C00034B03B1184770470C0000200C00002043
:10014C000000000010B5064C237843B9FFF7D8FF28
:10015C00044B13B10448AFF300800123237010BD8E
:10016C000C00002000000000E00D000808B5084B52
:10017C001BB108490848AFF300800848036813B95D
:10018C00BDE80840CCE7064B002BF9D09847F7E7C1
:10019C000000000010000020E00D00080C00002002
:1001AC000000000070B50F4E0F4D761BB61018BF37
:1001BC00002405D0013455F8043B9847A642F9D1E8
:1001CC000A4E0B4D00F006FE761BB61018BF00242D
:1001DC0006D0013455F8043B9847A642F9D170BDBE
:1001EC0070BD00BF280E0008280E00082C0E000859
:1001FC00280E0008FEE7000000B591B0022306931C
:10020C0001230A9310230B9300230D9306A800F0EF
:10021C003DF9F0B90F230193002102910391049150
:10022C00059101A800F058FBB8B900F011FC0D4B7A
:10023C00A3FB0030800900F055FD042000F068FDA0
:10024C00002211464FF0FF3000F01AFD11B05DF89E
:10025C0004FB85210448FFF7CDFF93210248FFF7EB
:10026C00C9FF00BFD34D62100C0E000808B500F09A
:10027C00BFF8FFF7C1FF00F00BF80121034800F0B5
:10028C00E9FC47F2305000F0D7F8F6E7000C0140DB
:10029C0010B586B0124B9A6942F008029A619A69BD
:1002AC0002F008020092009A9A6942F004029A61E4
:1002BC009B6903F004030193019B0A4C002201216A
:1002CC00204600F0C1FC0123029303930023049306
:1002DC000223059302A9204600F0C0FB06B010BD16
:1002EC0000100240000C01407047FEE7FEE7FEE7FD
:1002FC00FEE770477047704708B500F08BF800F0C8
:10030C0018FD08BD00B583B0244B9A6942F0010278
:10031C009A619A6902F001020092009ADA6942F03D
:10032C008052DA61DB6903F080530193019B032057
:10033C0000F094FC002211466FF00B0000F0A0FCC2
:10034C00002211466FF00A0000F09AFC00221146C0
:10035C006FF0090000F094FC002211466FF00400CD
:10036C0000F08EFC002211466FF0030000F088FCB8
:10037C00002211466FF0010000F082FC00221146B1
:10038C004FF0FF3000F07CFC054A536823F0E0632B
:10039C0043F00073536003B05DF804FB001002409F
:1003AC000000014010B504460E4B18784FF47A73D8
:1003BC00B3FBF0F30C4A1068B0FBF3F000F092FCC6
:1003CC0068B90F2C01D9012010BD002221464FF035
:1003DC00FF3000F055FC054B1C60002010BD0120C7
:1003EC0010BD00BF00000020080000200400002009
:1003FC0008B5074A136843F010031360032000F09C
:10040C002DFC0020FFF7CEFFFFF77CFF002008BD7E
:10041C0000200240034A1168034B1B780B44136005
:10042C00704700BF2800002000000020014B186816
:10043C00704700BF2800002038B50446FFF7F6FFD0
:10044C000546B4F1FF3F02D0044B1B781C44FFF768
:10045C00EDFF401B8442FAD838BD00BF00000020DD
:10046C0082B0084B1B68084AA2FB03235B0A00FB03
:10047C0003F0019000BF019B5A1E0192002BF9D191
:10048C0002B0704708000020D34D621070B582B0E6
:10049C000446036813F0010F3DD0AC4B5B6803F0CE
:1004AC000C03042B2ED0A94B5B6803F00C03082B18
:1004BC0023D06368B3F5803F51D0002B55D103F1A5
:1004CC00804303F504331A6822F480321A601A68E8
:1004DC0022F480221A606368002B60D0FFF7A6FF1D
:1004EC0005469A4B1B6813F4003F14D1FFF79EFF8F
:1004FC00401B6428F5D90320AFE1944B5B6813F4DF
:10050C00803FD6D0914B1B6813F4003F03D0636837
:10051C00002B00F09F81236813F0020F65D08B4BEA
:10052C005B6813F00C0F4ED0884B5B6803F00C0328
:10053C00082B43D02369002B79D00122844B1A60FD
:10054C00FFF774FF0546814B1B6813F0020F65D152
:10055C00FFF76CFF401B0228F5D903207DE17B4A95
:10056C00136843F480331360B5E7B3F5A02F09D0BB
:10057C00764B1A6822F480321A601A6822F48022B0
:10058C001A60A8E703F18043A3F53C331A6842F4E0
:10059C0080221A601A6842F480321A609BE7FFF7D7
:1005AC0045FF0546694B1B6813F4003FB3D0FFF7BA
:1005BC003DFF401B6428F5D903204EE1634B5B687B
:1005CC0013F4803FB6D1614B1B6813F0020F04D0BB
:1005DC002369012B01D001203FE15C4A136823F011
:1005EC00F803616943EAC1031360236813F0080F31
:1005FC0032D0A369002B6ED00122564B1A60FFF744
:10060C0015FF0546514B5B6A13F0020F21D1FFF722
:10061C000DFF401B0228F5D903201EE14B4A13683D
:10062C0023F0F803616943EAC1031360DDE700229C
:10063C00474B1A60FFF7FAFE0546444B1B6813F054
:10064C00020FD2D0FFF7F2FE401B0228F5D903208F
:10065C0003E10120FFF704FF236813F0040F00F0FF
:10066C0099803A4BDB6913F0805F46D1374BDA69DE
:10067C0042F08052DA61DB6903F080530193019BF5
:10068C000125354B1B6813F4807F38D0E368012BB0
:10069C0049D0002B4DD103F1804303F504331A6A82
:1006AC0022F001021A621A6A22F004021A62E3684A
:1006BC00002B5DD0FFF7BAFE0646244B1B6A13F0E5
:1006CC00020F66D1FFF7B2FE801B41F288339842CD
:1006DC00F3D90320C1E000221E4B1A60FFF7A6FEDF
:1006EC0005461A4B5B6A13F0020FB5D0FFF79EFE5E
:1006FC00401B0228F5D90320AFE00025C1E7164ABC
:10070C00136843F480731360FFF790FE0646124B98
:10071C001B6813F4807FB9D1FFF788FE801B642817
:10072C00F5D9032099E0094A136A43F001031362D7
:10073C00BDE7052B12D0054B1A6A22F001021A6292
:10074C001A6A22F004021A62B1E700BF00100240DC
:10075C00000042428004424200700040414B1A6A41
:10076C0042F004021A621A6A42F001021A629EE70F
:10077C00FFF75CFE06463B4B1B6A13F0020F08D0DA
:10078C00FFF754FE801B41F288339842F3D90320C3
:10079C0063E0E5B9E369002B5ED0324A526802F09F
:1007AC000C02082A5BD0022B17D000222E4B1A60A9
:1007BC00FFF73CFE04462B4B1B6813F0007F47D021
:1007CC00FFF734FE001B0228F5D9032045E0254A2B
:1007DC00D36923F08053D361DCE70022224B1A60EB
:1007EC00FFF724FE05461F4B1B6813F0007F06D055
:1007FC00FFF71CFE401B0228F5D903202DE0236ACD
:10080C00B3F5803F1AD017494B6823F47413226A4E
:10081C00606A024313434B600122134B1A60FFF7CB
:10082C0005FE04460F4B1B6813F0007F0ED1FFF73B
:10083C00FDFD001B0228F5D903200EE0094A536880
:10084C0023F40033A1680B435360DCE7002004E081
:10085C00002002E0012000E0002002B070BD012069
:10086C00FBE700BF001002406000424210B586B0AA
:10087C00154C94E80F000DF1180E0EE90F00238AA9
:10088C00ADF80430114B5B6803F00C02082A18D148
:10089C00C3F38342724412F8102C13F4803F03D13B
:1008AC000B4800FB02F00DE0084B5B68C3F34043C0
:1008BC00734413F8143C074800FB02F0B0FBF3F050
:1008CC0000E0044806B010BDF80D0008001002400E
:1008DC0000093D0000127A00594B1B6803F0070316
:1008EC008B420CD2564A136823F007030B43136058
:1008FC00136803F00703994201D00120704770B5CB
:10090C00036813F0020F06D04E4A536823F0F0032D
:10091C008468234353600D460446036813F0010FAB
:10092C0052D04368012B23D0022B28D0454A1268A1
:10093C0012F0020F00F0828042494A6822F0030252
:10094C0013434B60FFF772FD06466368012B1DD005
:10095C00022B2AD03B4B5B6813F00C0F34D0FFF703
:10096C0065FD801B41F288339842F3D9032070BD9A
:10097C00344A126812F4003FDED1012070BD314AB6
:10098C00126812F0007FD7D1012070BD2D4B5B682F
:10099C0003F00C03042B17D0FFF748FD801B41F22A
:1009AC0088339842F2D9032070BD264B5B6803F064
:1009BC000C03082B08D0FFF739FD801B41F288335C
:1009CC009842F2D9032070BD1D4B1B6803F007033E
:1009DC009D420CD21A4A136823F007032B43136071
:1009EC00136803F007039D4201D0012070BD2368FA
:1009FC0013F0040F06D0134A536823F4E063E16844
:100A0C000B435360236813F0080F07D00D4A53684B
:100A1C0023F46053216943EAC1035360FFF726FFB7
:100A2C00084B5B68C3F30313074AD35CD840074BEE
:100A3C0018600020FFF7B6FC002070BD012070BDCF
:100A4C000020024000100240180E00080800002090
:100A5C00014B1868704700BF08000020F0B583B048
:100A6C000026344671E0002D00F0A180012D00D14C
:100A7C00CE68FF2B00F2AF808646FF2B00F2AE80D3
:100A8C00A500DEF800200F27AF4022EA070206FA85
:100A9C0005F52A43CEF800204A6812F0805F53D047
:100AAC00634A956945F001059561926902F001026E
:100ABC000192019AA508AF1C5E4A52F8272004F057
:100ACC000307BF004FF00F0E0EFA07FE22EA0E02CC
:100ADC00DFF870E1704500F088800EF5806E70458F
:100AEC0000F086800EF5806E704500F084800EF567
:100AFC00806E704576D04FF0040E0EFA07F73A432D
:100B0C0002354C4F47F825204A6812F4803F75D0C7
:100B1C00494D2A681A432A604A6812F4003F73D080
:100B2C00454D6A681A436A604A6812F4801F71D096
:100B3C00414DAA681A43AA604A6812F4001F6FD08C
:100B4C003D4DEA681343EB6001340F2C6ED8012243
:100B5C00A2400B6813409A42F6D14D68122D30D04A
:100B6C000BD8022D2AD07FF67EAF032D2FD0112D5E
:100B7C007FF47FAFCE6804367BE7304FBD4216D092
:100B8C000CD92F4FBD4212D007F58037BD420ED085
:100B9C00A7F58017BD427FF46CAF08E0A7F580176E
:100BAC00BD4204D007F58037BD427FF462AF8D683B
:100BBC007DB1012D08D0426108265AE7CE6808366F
:100BCC0057E7CE680C3654E70261082651E7002639
:100BDC004FE704264DE700F1040E4EE7A4F108059B
:100BEC00AD004EE74FF0030E87E74FF0000E84E7A1
:100BFC004FF0010E81E74FF0020E7EE70E4D2A6892
:100C0C0022EA03022A6087E70B4D6A6822EA030294
:100C1C006A6089E7084DAA6822EA0302AA608BE79A
:100C2C00054DEA6822EA0303EB608DE703B0F0BDE3
:100C3C00001002400000014000040140000021109F
:100C4C00000031100008014012B90904016170471D
:100C5C0001617047C3685940C1607047074AD36847
:100C6C0023F4E0631B041B0C000200F4E060184347
:100C7C0040F0BF6040F40030D060704700ED00E001
:100C8C0030B4164BDB68C3F30223C3F10704042C06
:100C9C0028BF04241D1D062D17D9033B012505FA79
:100CAC0004F4013C2140994005FA03F3013B134045
:100CBC00194300280BDB0901C9B200F1604000F5B3
:100CCC00614080F8001330BC70470023E6E700F069
:100CDC000F000901C9B2024B1954F4E700ED00E012
:100CEC0014ED00E00138B0F1807F0AD2064B586059
:100CFC00F021064A82F823100020986007221A601F
:100D0C0070470120704700BF10E000E000ED00E0EC
:100D1C00042805D0054A136823F0040313607047B8
:100D2C00024A136843F004031360704710E000E0BC
:100D3C00704708B5FFF7FCFF08BD00000F4B1A68A1
:100D4C0042F001021A6059680D4A0A405A601A684A
:100D5C0022F0847222F480321A601A6822F4802203
:100D6C001A605A6822F4FE025A604FF41F029A600D
:100D7C004FF00062034B9A60704700BF00100240B6
:100D8C000000FFF800ED00E0002103E00B4B5B5886
:100D9C00435004310A480B4B42189A42F6D30A4A84
:100DAC0002E0002342F8043B084B9A42F9D3FFF7C8
:100DBC00C5FFFFF7F7F9FFF759FA7047300E000837
:100DCC00000000200C0000200C0000202C00002053
:100DDC00FEE70000F8B500BFF8BC08BC9E467047A3
:0C0DEC00F8B500BFF8BC08BC9E4670477C
:100DF80002030405060708090A0B0C0D0E0F101054
:100E0800010200005372632F6D61696E2E6300004A
:100E180000000000000000000102030406070809A2
:040E28007901000844
:040E2C005101000868
:0C0E3000010000001000000000A24A04B5
:0400000508000D954D
:00000001FF
